{
  "_format": "hh-sol-artifact-1",
  "contractName": "FoodSupplyChain",
  "sourceName": "contracts/Traceability.sol",
  "abi": [
    {
      "inputs": [],
      "stateMutability": "nonpayable",
      "type": "constructor"
    },
    {
      "anonymous": false,
      "inputs": [
        {
          "indexed": true,
          "internalType": "address",
          "name": "account",
          "type": "address"
        },
        {
          "indexed": false,
          "internalType": "int256",
          "name": "newScore",
          "type": "int256"
        }
      ],
      "name": "ReputationUpdated",
      "type": "event"
    },
    {
      "anonymous": false,
      "inputs": [
        {
          "indexed": true,
          "internalType": "bytes32",
          "name": "role",
          "type": "bytes32"
        },
        {
          "indexed": true,
          "internalType": "bytes32",
          "name": "previousAdminRole",
          "type": "bytes32"
        },
        {
          "indexed": true,
          "internalType": "bytes32",
          "name": "newAdminRole",
          "type": "bytes32"
        }
      ],
      "name": "RoleAdminChanged",
      "type": "event"
    },
    {
      "anonymous": false,
      "inputs": [
        {
          "indexed": true,
          "internalType": "bytes32",
          "name": "role",
          "type": "bytes32"
        },
        {
          "indexed": true,
          "internalType": "address",
          "name": "account",
          "type": "address"
        },
        {
          "indexed": true,
          "internalType": "address",
          "name": "sender",
          "type": "address"
        }
      ],
      "name": "RoleGranted",
      "type": "event"
    },
    {
      "anonymous": false,
      "inputs": [
        {
          "indexed": true,
          "internalType": "bytes32",
          "name": "role",
          "type": "bytes32"
        },
        {
          "indexed": true,
          "internalType": "address",
          "name": "account",
          "type": "address"
        },
        {
          "indexed": true,
          "internalType": "address",
          "name": "sender",
          "type": "address"
        }
      ],
      "name": "RoleRevoked",
      "type": "event"
    },
    {
      "anonymous": false,
      "inputs": [
        {
          "indexed": true,
          "internalType": "uint256",
          "name": "shipmentId",
          "type": "uint256"
        },
        {
          "indexed": true,
          "internalType": "address",
          "name": "actor",
          "type": "address"
        },
        {
          "indexed": false,
          "internalType": "uint256",
          "name": "timestamp",
          "type": "uint256"
        },
        {
          "indexed": false,
          "internalType": "string",
          "name": "action",
          "type": "string"
        },
        {
          "indexed": false,
          "internalType": "string",
          "name": "note",
          "type": "string"
        },
        {
          "indexed": false,
          "internalType": "int256",
          "name": "temperature",
          "type": "int256"
        }
      ],
      "name": "TraceLog",
      "type": "event"
    },
    {
      "inputs": [],
      "name": "CARRIER_ROLE",
      "outputs": [
        {
          "internalType": "bytes32",
          "name": "",
          "type": "bytes32"
        }
      ],
      "stateMutability": "view",
      "type": "function"
    },
    {
      "inputs": [],
      "name": "DEFAULT_ADMIN_ROLE",
      "outputs": [
        {
          "internalType": "bytes32",
          "name": "",
          "type": "bytes32"
        }
      ],
      "stateMutability": "view",
      "type": "function"
    },
    {
      "inputs": [],
      "name": "HANDLER_ROLE",
      "outputs": [
        {
          "internalType": "bytes32",
          "name": "",
          "type": "bytes32"
        }
      ],
      "stateMutability": "view",
      "type": "function"
    },
    {
      "inputs": [],
      "name": "REPUTATION_INCREMENT",
      "outputs": [
        {
          "internalType": "int256",
          "name": "",
          "type": "int256"
        }
      ],
      "stateMutability": "view",
      "type": "function"
    },
    {
      "inputs": [],
      "name": "REPUTATION_PENALTY",
      "outputs": [
        {
          "internalType": "int256",
          "name": "",
          "type": "int256"
        }
      ],
      "stateMutability": "view",
      "type": "function"
    },
    {
      "inputs": [],
      "name": "SENSOR_ROLE",
      "outputs": [
        {
          "internalType": "bytes32",
          "name": "",
          "type": "bytes32"
        }
      ],
      "stateMutability": "view",
      "type": "function"
    },
    {
      "inputs": [],
      "name": "STORE_ROLE",
      "outputs": [
        {
          "internalType": "bytes32",
          "name": "",
          "type": "bytes32"
        }
      ],
      "stateMutability": "view",
      "type": "function"
    },
    {
      "inputs": [
        {
          "internalType": "uint256",
          "name": "_id",
          "type": "uint256"
        },
        {
          "internalType": "string",
          "name": "_location",
          "type": "string"
        },
        {
          "internalType": "int256",
          "name": "_temperature",
          "type": "int256"
        },
        {
          "internalType": "string",
          "name": "_note",
          "type": "string"
        }
      ],
      "name": "addTrace",
      "outputs": [],
      "stateMutability": "nonpayable",
      "type": "function"
    },
    {
      "inputs": [
        {
          "internalType": "string",
          "name": "_product",
          "type": "string"
        },
        {
          "internalType": "string",
          "name": "_meta",
          "type": "string"
        }
      ],
      "name": "createShipment",
      "outputs": [
        {
          "internalType": "uint256",
          "name": "",
          "type": "uint256"
        }
      ],
      "stateMutability": "nonpayable",
      "type": "function"
    },
    {
      "inputs": [
        {
          "internalType": "uint256",
          "name": "_id",
          "type": "uint256"
        },
        {
          "internalType": "string",
          "name": "_reason",
          "type": "string"
        }
      ],
      "name": "emergencyContaminateShipment",
      "outputs": [],
      "stateMutability": "nonpayable",
      "type": "function"
    },
    {
      "inputs": [
        {
          "internalType": "address",
          "name": "_account",
          "type": "address"
        }
      ],
      "name": "getReputation",
      "outputs": [
        {
          "internalType": "int256",
          "name": "",
          "type": "int256"
        }
      ],
      "stateMutability": "view",
      "type": "function"
    },
    {
      "inputs": [
        {
          "internalType": "bytes32",
          "name": "role",
          "type": "bytes32"
        }
      ],
      "name": "getRoleAdmin",
      "outputs": [
        {
          "internalType": "bytes32",
          "name": "",
          "type": "bytes32"
        }
      ],
      "stateMutability": "view",
      "type": "function"
    },
    {
      "inputs": [],
      "name": "getShipmentCount",
      "outputs": [
        {
          "internalType": "uint256",
          "name": "",
          "type": "uint256"
        }
      ],
      "stateMutability": "view",
      "type": "function"
    },
    {
      "inputs": [
        {
          "internalType": "uint256",
          "name": "_id",
          "type": "uint256"
        }
      ],
      "name": "getShipmentInfo",
      "outputs": [
        {
          "components": [
            {
              "internalType": "uint256",
              "name": "shipmentId",
              "type": "uint256"
            },
            {
              "internalType": "uint64",
              "name": "createdAt",
              "type": "uint64"
            },
            {
              "internalType": "address",
              "name": "handler",
              "type": "address"
            },
            {
              "internalType": "bool",
              "name": "contaminated",
              "type": "bool"
            },
            {
              "internalType": "enum FoodSupplyChain.ShipmentStatus",
              "name": "status",
              "type": "uint8"
            },
            {
              "internalType": "address",
              "name": "currentHolder",
              "type": "address"
            }
          ],
          "internalType": "struct FoodSupplyChain.Shipment",
          "name": "",
          "type": "tuple"
        }
      ],
      "stateMutability": "view",
      "type": "function"
    },
    {
      "inputs": [
        {
          "internalType": "address",
          "name": "_account",
          "type": "address"
        },
        {
          "internalType": "bytes32[]",
          "name": "_roles",
          "type": "bytes32[]"
        }
      ],
      "name": "grantMultipleRoles",
      "outputs": [],
      "stateMutability": "nonpayable",
      "type": "function"
    },
    {
      "inputs": [
        {
          "internalType": "bytes32",
          "name": "role",
          "type": "bytes32"
        },
        {
          "internalType": "address",
          "name": "account",
          "type": "address"
        }
      ],
      "name": "grantRole",
      "outputs": [],
      "stateMutability": "nonpayable",
      "type": "function"
    },
    {
      "inputs": [
        {
          "internalType": "address",
          "name": "_account",
          "type": "address"
        }
      ],
      "name": "hasAnyRole",
      "outputs": [
        {
          "internalType": "bool",
          "name": "",
          "type": "bool"
        }
      ],
      "stateMutability": "view",
      "type": "function"
    },
    {
      "inputs": [
        {
          "internalType": "bytes32",
          "name": "role",
          "type": "bytes32"
        },
        {
          "internalType": "address",
          "name": "account",
          "type": "address"
        }
      ],
      "name": "hasRole",
      "outputs": [
        {
          "internalType": "bool",
          "name": "",
          "type": "bool"
        }
      ],
      "stateMutability": "view",
      "type": "function"
    },
    {
      "inputs": [
        {
          "internalType": "uint256",
          "name": "_id",
          "type": "uint256"
        }
      ],
      "name": "isShipmentContaminated",
      "outputs": [
        {
          "internalType": "bool",
          "name": "",
          "type": "bool"
        }
      ],
      "stateMutability": "view",
      "type": "function"
    },
    {
      "inputs": [
        {
          "internalType": "bytes32",
          "name": "role",
          "type": "bytes32"
        },
        {
          "internalType": "address",
          "name": "account",
          "type": "address"
        }
      ],
      "name": "renounceRole",
      "outputs": [],
      "stateMutability": "nonpayable",
      "type": "function"
    },
    {
      "inputs": [
        {
          "internalType": "address",
          "name": "",
          "type": "address"
        }
      ],
      "name": "reputation",
      "outputs": [
        {
          "internalType": "int256",
          "name": "",
          "type": "int256"
        }
      ],
      "stateMutability": "view",
      "type": "function"
    },
    {
      "inputs": [
        {
          "internalType": "bytes32",
          "name": "role",
          "type": "bytes32"
        },
        {
          "internalType": "address",
          "name": "account",
          "type": "address"
        }
      ],
      "name": "revokeRole",
      "outputs": [],
      "stateMutability": "nonpayable",
      "type": "function"
    },
    {
      "inputs": [
        {
          "internalType": "uint256",
          "name": "",
          "type": "uint256"
        }
      ],
      "name": "shipments",
      "outputs": [
        {
          "internalType": "uint256",
          "name": "shipmentId",
          "type": "uint256"
        },
        {
          "internalType": "uint64",
          "name": "createdAt",
          "type": "uint64"
        },
        {
          "internalType": "address",
          "name": "handler",
          "type": "address"
        },
        {
          "internalType": "bool",
          "name": "contaminated",
          "type": "bool"
        },
        {
          "internalType": "enum FoodSupplyChain.ShipmentStatus",
          "name": "status",
          "type": "uint8"
        },
        {
          "internalType": "address",
          "name": "currentHolder",
          "type": "address"
        }
      ],
      "stateMutability": "view",
      "type": "function"
    },
    {
      "inputs": [
        {
          "internalType": "uint256",
          "name": "_id",
          "type": "uint256"
        },
        {
          "internalType": "int256[]",
          "name": "_temps",
          "type": "int256[]"
        },
        {
          "internalType": "string[]",
          "name": "_locations",
          "type": "string[]"
        },
        {
          "internalType": "uint256[]",
          "name": "_timestamps",
          "type": "uint256[]"
        }
      ],
      "name": "submitSensorReadings",
      "outputs": [],
      "stateMutability": "nonpayable",
      "type": "function"
    },
    {
      "inputs": [
        {
          "internalType": "bytes4",
          "name": "interfaceId",
          "type": "bytes4"
        }
      ],
      "name": "supportsInterface",
      "outputs": [
        {
          "internalType": "bool",
          "name": "",
          "type": "bool"
        }
      ],
      "stateMutability": "view",
      "type": "function"
    },
    {
      "inputs": [
        {
          "internalType": "uint256",
          "name": "_id",
          "type": "uint256"
        },
        {
          "internalType": "address",
          "name": "_newHolder",
          "type": "address"
        },
        {
          "internalType": "string",
          "name": "_note",
          "type": "string"
        }
      ],
      "name": "transferCustody",
      "outputs": [],
      "stateMutability": "nonpayable",
      "type": "function"
    }
  ],
  "bytecode": "0x60806040523480156200001157600080fd5b506200001f60003362000051565b6200004b7f8ee6ed50dc250dbccf4d86bd88d4956ab55c7de37d1fed5508924b70da11fe8b3362000051565b620000f2565b6000828152602081815260408083206001600160a01b038516845290915290205460ff16620000ee576000828152602081815260408083206001600160a01b03851684529091529020805460ff19166001179055620000ad3390565b6001600160a01b0316816001600160a01b0316837f2f8788117e7eff1d82e926ec794901d17c78024a50270940304540a733656f0d60405160405180910390a45b5050565b6123aa80620001026000396000f3fe608060405234801561001057600080fd5b506004361061018e5760003560e01c8063910bc3a1116100de578063a217fddf11610097578063b9f7945111610071578063b9f794511461040b578063d3ae71da1461042b578063d547741f1461043e578063d9cbef6c1461045157600080fd5b8063a217fddf146103e8578063a9c38aad146103f0578063ab879a73146103f857600080fd5b8063910bc3a11461035157806391b9f9d81461036457806391d148541461037757806396659e5d1461038a5780639c89a0e21461039f5780639df98f3d146103c857600080fd5b80632f2ff15d1161014b5780633def2b52116101255780633def2b52146102dd5780633e379fa6146102f057806365a1be48146103035780637afa9e9c1461032a57600080fd5b80632f2ff15d146102af57806336568abe146102c25780633acc361a146102d557600080fd5b806301ffc9a7146101935780631558da02146101bb5780631d3988a1146101ce578063248a9ca3146101e3578063265d83b9146102145780632ac08a931461023b575b600080fd5b6101a66101a13660046117d1565b610459565b60405190151581526020015b60405180910390f35b6101a66101c93660046117fb565b610490565b6101e16101dc3660046118c9565b6104e9565b005b6102066101f13660046117fb565b60009081526020819052604090206001015490565b6040519081526020016101b2565b6102067f9cf888df9829983a4501c3e5076732bbf523e06c6b31f6ce065f61c2aec2056781565b61029d6102493660046117fb565b60036020526000908152604090208054600182015460029092015490916001600160401b038116916001600160a01b03600160401b830481169260ff600160e01b8204811693600160e81b90920416911686565b6040516101b296959493929190611947565b6101e16102bd3660046119b3565b610610565b6101e16102d03660046119b3565b61063a565b610206600581565b6102066102eb3660046119df565b6106b8565b6101e16102fe366004611b45565b61089d565b6102067feb998ffefd22a823ed46d63e27357a1eefa908b6ba6804ac328694f77956b46981565b6102067f8ee6ed50dc250dbccf4d86bd88d4956ab55c7de37d1fed5508924b70da11fe8b81565b6101e161035f366004611c2d565b610b7d565b6101e1610372366004611c83565b610ea7565b6101a66103853660046119b3565b610f3e565b61020660008051602061231583398151915281565b6102066103ad366004611d26565b6001600160a01b031660009081526002602052604090205490565b6103db6103d63660046117fb565b610f67565b6040516101b29190611d41565b610206600081565b610206611075565b6101e1610406366004611da8565b611085565b610206610419366004611d26565b60026020526000908152604090205481565b6101a6610439366004611d26565b61121b565b6101e161044c3660046119b3565b6112c5565b610206601481565b60006001600160e01b03198216637965db0b60e01b148061048a57506301ffc9a760e01b6001600160e01b03198316145b92915050565b600081815260036020526040812054829082036104c85760405162461bcd60e51b81526004016104bf90611e12565b60405180910390fd5b5050600090815260036020526040902060010154600160e01b900460ff1690565b60006104f4816112ea565b6000838152600360205260408120548491036105225760405162461bcd60e51b81526004016104bf90611e12565b60008481526003602090815260409182902060018101805461ffff60e01b191661030160e01b17905591513391879160008051602061233583398151915291429161056f918a9101611e62565b60408051601f198184030181529082905261058d9291600090611ebe565b60405180910390a36002818101546001600160a01b03166000908152602091909152604081208054601492906105c4908490611f1d565b90915550506002818101546001600160a01b0316600081815260209283526040908190205490519081529091600080516020612355833981519152910160405180910390a25050505050565b60008281526020819052604090206001015461062b816112ea565b61063583836112f7565b505050565b6001600160a01b03811633146106aa5760405162461bcd60e51b815260206004820152602f60248201527f416363657373436f6e74726f6c3a2063616e206f6e6c792072656e6f756e636560448201526e103937b632b9903337b91039b2b63360891b60648201526084016104bf565b6106b4828261137b565b5050565b60006106c8600180546001019055565b60006106d360015490565b90506040518060c00160405280828152602001426001600160401b03168152602001336001600160a01b03168152602001600015158152602001600060038111156107205761072061190f565b8152336020918201526000838152600380835260409182902084518155928401516001840180549386015160608701511515600160e01b0260ff60e01b196001600160a01b0392909216600160401b026001600160e01b03199096166001600160401b03909416939093179490941793841682178155608086015193909260ff60e81b1990921661ffff60e01b199091161790600160e81b9084908111156107ca576107ca61190f565b021790555060a09190910151600290910180546001600160a01b0319166001600160a01b03909216919091179055604051339082906000805160206123358339815191529042906108219089908990602001611f44565b60408051601f1981840301815290829052610840929160131990611f82565b60405180910390a33360009081526002602052604081205490036108965733600081815260026020908152604091829020600a908190559151918252600080516020612355833981519152910160405180910390a25b9392505050565b6000805160206123158339815191526108b5816112ea565b6000858152600360205260408120548691036108e35760405162461bcd60e51b81526004016104bf90611e12565b835185511480156108f5575082518451145b61093a5760405162461bcd60e51b8152602060048201526016602482015275082e4e4c2f240d8cadccee8d0e640dad2e6dac2e8c6d60531b60448201526064016104bf565b600085511161097b5760405162461bcd60e51b815260206004820152600d60248201526c4e6565642072656164696e677360981b60448201526064016104bf565b6000868152600360205260408120905b8651811015610b73576013198782815181106109a9576109a9611fb9565b60200260200101511380156109ca57506001820154600160e01b900460ff16155b15610a5b5760018201805461ffff60e01b191661030160e01b1790556002808301546001600160a01b0316600090815260209190915260408120805460149290610a15908490611f1d565b90915550506002828101546001600160a01b0316600081815260209283526040908190205490519081529091600080516020612355833981519152910160405180910390a25b336001600160a01b031688600080516020612335833981519152878481518110610a8757610a87611fb9565b602002602001015185600101601c9054906101000a900460ff16610ad0576040518060400160405280600d81526020016c53454e534f525f55504441544560981b815250610af6565b6040518060400160405280600c81526020016b10d3d395105352539055115160a21b8152505b8a8681518110610b0857610b08611fb9565b6020026020010151604051602001610b209190611fcf565b6040516020818303038152906040528c8781518110610b4157610b41611fb9565b6020026020010151604051610b599493929190612001565b60405180910390a380610b6b8161203e565b91505061098b565b5050505050505050565b600083815260036020526040812054849103610bab5760405162461bcd60e51b81526004016104bf90611e12565b600084815260036020526040902060028101546001600160a01b03163314610c155760405162461bcd60e51b815260206004820181905260248201527f4f6e6c792063757272656e7420686f6c6465722063616e207472616e7366657260448201526064016104bf565b6001600160a01b038416610c6b5760405162461bcd60e51b815260206004820152601760248201527f4e657720686f6c646572207a65726f206164647265737300000000000000000060448201526064016104bf565b336001600160a01b03851603610cc35760405162461bcd60e51b815260206004820152601760248201527f43616e6e6f74207472616e7366657220746f2073656c6600000000000000000060448201526064016104bf565b6002810180546001600160a01b038681166001600160a01b031983161790925516610d0e7feb998ffefd22a823ed46d63e27357a1eefa908b6ba6804ac328694f77956b46986610f3e565b15610d2d5760018201805460ff60e81b1916600160e81b179055610d72565b610d577f9cf888df9829983a4501c3e5076732bbf523e06c6b31f6ce065f61c2aec2056786610f3e565b15610d725760018201805460ff60e81b1916600160e91b1790555b806001600160a01b03168660008051602061233583398151915242610d96856113e0565b610d9f8a6113e0565b89604051602001610db293929190612057565b60408051601f1981840301815290829052610dd19291601319906120cc565b60405180910390a3600086815260036020526040902060010154600160e01b900460ff16158015610e3057506002600087815260036020819052604090912060010154600160e81b900460ff1690811115610e2e57610e2e61190f565b145b15610e9f576001600160a01b0381166000908152600260205260408120805460059290610e5e908490612104565b90915550506001600160a01b038116600081815260026020908152604091829020549151918252600080516020612355833981519152910160405180910390a25b505050505050565b6000610eb2816112ea565b6001600160a01b038316610ef75760405162461bcd60e51b815260206004820152600c60248201526b5a65726f206164647265737360a01b60448201526064016104bf565b60005b8251811015610f3857610f26838281518110610f1857610f18611fb9565b6020026020010151856112f7565b80610f308161203e565b915050610efa565b50505050565b6000918252602082815260408084206001600160a01b0393909316845291905290205460ff1690565b6040805160c081018252600080825260208201819052918101829052606081018290526080810182905260a0810191909152600082815260036020526040812054839103610fc75760405162461bcd60e51b81526004016104bf90611e12565b600083815260036020818152604092839020835160c0810185528154815260018201546001600160401b038116938201939093526001600160a01b03600160401b8404169481019490945260ff600160e01b830481161515606086015290926080850192600160e81b9004909116908111156110455761104561190f565b60038111156110565761105661190f565b8152600291909101546001600160a01b03166020909101529392505050565b600061108060015490565b905090565b6000848152600360205260408120548591036110b35760405162461bcd60e51b81526004016104bf90611e12565b60008581526003602052604090206002015485906001600160a01b03163314806110f057506110f060008051602061231583398151915233610f3e565b61113c5760405162461bcd60e51b815260206004820152601f60248201527f4e6f7420686f6c646572206f7220617574686f72697a65642073656e736f720060448201526064016104bf565b60008681526003602052604090206013198513156111be5760018101805461ffff60e01b191661030160e01b17905560405133908890600080516020612335833981519152904290611194908b908a9060200161212c565b60408051601f19818403018152908290526111b192918b90612185565b60405180910390a3611212565b336001600160a01b0316876000805160206123358339815191524289886040516020016111ec9291906121c1565b60408051601f198184030181529082905261120992918b90612215565b60405180910390a35b50505050505050565b60006112477f8ee6ed50dc250dbccf4d86bd88d4956ab55c7de37d1fed5508924b70da11fe8b83610f3e565b8061127757506112777feb998ffefd22a823ed46d63e27357a1eefa908b6ba6804ac328694f77956b46983610f3e565b806112a757506112a77f9cf888df9829983a4501c3e5076732bbf523e06c6b31f6ce065f61c2aec2056783610f3e565b8061048a575061048a60008051602061231583398151915283610f3e565b6000828152602081905260409020600101546112e0816112ea565b610635838361137b565b6112f481336115cb565b50565b6113018282610f3e565b6106b4576000828152602081815260408083206001600160a01b03851684529091529020805460ff191660011790556113373390565b6001600160a01b0316816001600160a01b0316837f2f8788117e7eff1d82e926ec794901d17c78024a50270940304540a733656f0d60405160405180910390a45050565b6113858282610f3e565b156106b4576000828152602081815260408083206001600160a01b0385168085529252808320805460ff1916905551339285917ff6391f5c32d9c69d2a47ea670b442974b53935d1edc7fd64eb21e047a839171b9190a45050565b604080518082018252601081526f181899199a1a9b1b9c1cb0b131b232b360811b60208201528151602a80825260608281019094526001600160a01b0385169291600091602082018180368337019050509050600360fc1b8160008151811061144b5761144b611fb9565b60200101906001600160f81b031916908160001a905350600f60fb1b8160018151811061147a5761147a611fb9565b60200101906001600160f81b031916908160001a90535060005b60148110156115c257826004856114ac84600c61224b565b602081106114bc576114bc611fb9565b1a60f81b6001600160f81b031916901c60f81c60ff16815181106114e2576114e2611fb9565b01602001516001600160f81b031916826114fd83600261225e565b61150890600261224b565b8151811061151857611518611fb9565b60200101906001600160f81b031916908160001a905350828461153c83600c61224b565b6020811061154c5761154c611fb9565b825191901a600f1690811061156357611563611fb9565b01602001516001600160f81b0319168261157e83600261225e565b61158990600361224b565b8151811061159957611599611fb9565b60200101906001600160f81b031916908160001a905350806115ba8161203e565b915050611494565b50949350505050565b6115d58282610f3e565b6106b4576115e281611624565b6115ed836020611636565b6040516020016115fe929190612275565b60408051601f198184030181529082905262461bcd60e51b82526104bf916004016122ea565b606061048a6001600160a01b03831660145b6060600061164583600261225e565b61165090600261224b565b6001600160401b0381111561166757611667611814565b6040519080825280601f01601f191660200182016040528015611691576020820181803683370190505b509050600360fc1b816000815181106116ac576116ac611fb9565b60200101906001600160f81b031916908160001a905350600f60fb1b816001815181106116db576116db611fb9565b60200101906001600160f81b031916908160001a90535060006116ff84600261225e565b61170a90600161224b565b90505b6001811115611782576f181899199a1a9b1b9c1cb0b131b232b360811b85600f166010811061173e5761173e611fb9565b1a60f81b82828151811061175457611754611fb9565b60200101906001600160f81b031916908160001a90535060049490941c9361177b816122fd565b905061170d565b5083156108965760405162461bcd60e51b815260206004820181905260248201527f537472696e67733a20686578206c656e67746820696e73756666696369656e7460448201526064016104bf565b6000602082840312156117e357600080fd5b81356001600160e01b03198116811461089657600080fd5b60006020828403121561180d57600080fd5b5035919050565b634e487b7160e01b600052604160045260246000fd5b604051601f8201601f191681016001600160401b038111828210171561185257611852611814565b604052919050565b600082601f83011261186b57600080fd5b81356001600160401b0381111561188457611884611814565b611897601f8201601f191660200161182a565b8181528460208386010111156118ac57600080fd5b816020850160208301376000918101602001919091529392505050565b600080604083850312156118dc57600080fd5b8235915060208301356001600160401b038111156118f957600080fd5b6119058582860161185a565b9150509250929050565b634e487b7160e01b600052602160045260246000fd5b6004811061194357634e487b7160e01b600052602160045260246000fd5b9052565b8681526001600160401b03861660208201526001600160a01b038581166040830152841515606083015260c08201906119836080840186611925565b80841660a084015250979650505050505050565b80356001600160a01b03811681146119ae57600080fd5b919050565b600080604083850312156119c657600080fd5b823591506119d660208401611997565b90509250929050565b600080604083850312156119f257600080fd5b82356001600160401b0380821115611a0957600080fd5b611a158683870161185a565b93506020850135915080821115611a2b57600080fd5b506119058582860161185a565b60006001600160401b03821115611a5157611a51611814565b5060051b60200190565b600082601f830112611a6c57600080fd5b81356020611a81611a7c83611a38565b61182a565b82815260059290921b84018101918181019086841115611aa057600080fd5b8286015b84811015611adf5780356001600160401b03811115611ac35760008081fd5b611ad18986838b010161185a565b845250918301918301611aa4565b509695505050505050565b600082601f830112611afb57600080fd5b81356020611b0b611a7c83611a38565b82815260059290921b84018101918181019086841115611b2a57600080fd5b8286015b84811015611adf5780358352918301918301611b2e565b60008060008060808587031215611b5b57600080fd5b843593506020808601356001600160401b0380821115611b7a57600080fd5b818801915088601f830112611b8e57600080fd5b8135611b9c611a7c82611a38565b81815260059190911b8301840190848101908b831115611bbb57600080fd5b938501935b82851015611bd957843582529385019390850190611bc0565b975050506040880135925080831115611bf157600080fd5b611bfd89848a01611a5b565b94506060880135925080831115611c1357600080fd5b5050611c2187828801611aea565b91505092959194509250565b600080600060608486031215611c4257600080fd5b83359250611c5260208501611997565b915060408401356001600160401b03811115611c6d57600080fd5b611c798682870161185a565b9150509250925092565b60008060408385031215611c9657600080fd5b611c9f83611997565b91506020808401356001600160401b03811115611cbb57600080fd5b8401601f81018613611ccc57600080fd5b8035611cda611a7c82611a38565b81815260059190911b82018301908381019088831115611cf957600080fd5b928401925b82841015611d1757833582529284019290840190611cfe565b80955050505050509250929050565b600060208284031215611d3857600080fd5b61089682611997565b600060c082019050825182526001600160401b036020840151166020830152604083015160018060a01b03808216604085015260608501511515606085015260808501519150611d946080850183611925565b8060a08601511660a0850152505092915050565b60008060008060808587031215611dbe57600080fd5b8435935060208501356001600160401b0380821115611ddc57600080fd5b611de88883890161185a565b9450604087013593506060870135915080821115611e0557600080fd5b50611c218782880161185a565b60208082526012908201527114da1a5c1b595b9d081b9bdd08199bdd5b9960721b604082015260600190565b60005b83811015611e59578181015183820152602001611e41565b50506000910152565b6702932b0b9b7b71d160c51b815260008251611e85816008850160208701611e3e565b9190910160080192915050565b60008151808452611eaa816020860160208601611e3e565b601f01601f19169290920160200192915050565b838152608060208201526009608082015268454d455247454e435960b81b60a082015260c060408201526000611ef760c0830185611e92565b9050826060830152949350505050565b634e487b7160e01b600052601160045260246000fd5b8181036000831280158383131683831282161715611f3d57611f3d611f07565b5092915050565b60008351611f56818460208801611e3e565b620103e160ed1b9083019081528351611f76816003840160208801611e3e565b01600301949350505050565b83815260806020820152600760808201526610d4915055115160ca1b60a082015260c060408201526000611ef760c0830185611e92565b634e487b7160e01b600052603260045260246000fd5b69029b2b739b7b91030ba160b51b815260008251611ff481600a850160208701611e3e565b91909101600a0192915050565b84815260806020820152600061201a6080830186611e92565b828103604084015261202c8186611e92565b91505082606083015295945050505050565b60006001820161205057612050611f07565b5060010190565b640233937b6960dd1b815260008451612077816005850160208901611e3e565b630103a37960e51b600591840191820152845161209b816009840160208901611e3e565b620103e160ed1b6009929091019182015283516120bf81600c840160208801611e3e565b01600c0195945050505050565b8381526080602082015260086080820152672a2920a729a322a960c11b60a082015260c060408201526000611ef760c0830185611e92565b808201828112600083128015821682158216171561212457612124611f07565b505092915050565b6e02a32b6b810313932b0b1b41030ba1608d1b81526000835161215681600f850160208801611e3e565b620103e160ed1b600f918401918201528351612179816012840160208801611e3e565b01601201949350505050565b83815260806020820152600c60808201526b10d3d395105352539055115160a21b60a082015260c060408201526000611ef760c0830185611e92565b6902637b1b0ba34b7b71d160b51b8152600083516121e681600a850160208801611e3e565b620103e160ed1b600a91840191820152835161220981600d840160208801611e3e565b01600d01949350505050565b83815260806020820152600660808201526555504441544560d01b60a082015260c060408201526000611ef760c0830185611e92565b8082018082111561048a5761048a611f07565b808202811582820484141761048a5761048a611f07565b7f416363657373436f6e74726f6c3a206163636f756e74200000000000000000008152600083516122ad816017850160208801611e3e565b7001034b99036b4b9b9b4b733903937b6329607d1b60179184019182015283516122de816028840160208801611e3e565b01602801949350505050565b6020815260006108966020830184611e92565b60008161230c5761230c611f07565b50600019019056fe21f08bb2d5a8ba388c5c7353e74b894a5dab0deae01fc9e309f5942f4c62cc8fa13628a1665783c42684fa268fbccb9d6210d7e1f5aaecdd0833645ae00bf1ea21b93f5364d09d606ec33450e45ad2e33958e3dac6c4f771ed1218f1eca47db5a2646970667358221220f92427fc2ede00f739171a3878784e5c4206673b6282fec14d9dfa79dc84431064736f6c63430008120033",
  "linkReferences": {},
  "deployedLinkReferences": {}
}